{
  "contractName": "TokenEconomy",
  "abi": [
    {
      "constant": false,
      "inputs": [],
      "name": "renounceOwnership",
      "outputs": [],
      "payable": false,
      "stateMutability": "nonpayable",
      "type": "function"
    },
    {
      "constant": true,
      "inputs": [],
      "name": "owner",
      "outputs": [
        {
          "name": "",
          "type": "address"
        }
      ],
      "payable": false,
      "stateMutability": "view",
      "type": "function"
    },
    {
      "constant": true,
      "inputs": [],
      "name": "isOwner",
      "outputs": [
        {
          "name": "",
          "type": "bool"
        }
      ],
      "payable": false,
      "stateMutability": "view",
      "type": "function"
    },
    {
      "constant": false,
      "inputs": [
        {
          "name": "newOwner",
          "type": "address"
        }
      ],
      "name": "transferOwnership",
      "outputs": [],
      "payable": false,
      "stateMutability": "nonpayable",
      "type": "function"
    },
    {
      "inputs": [
        {
          "name": "tokenAddress",
          "type": "address"
        },
        {
          "name": "wallet",
          "type": "address"
        },
        {
          "name": "rate",
          "type": "uint256"
        }
      ],
      "payable": false,
      "stateMutability": "nonpayable",
      "type": "constructor"
    },
    {
      "payable": true,
      "stateMutability": "payable",
      "type": "fallback"
    },
    {
      "anonymous": false,
      "inputs": [
        {
          "indexed": true,
          "name": "previousOwner",
          "type": "address"
        },
        {
          "indexed": true,
          "name": "newOwner",
          "type": "address"
        }
      ],
      "name": "OwnershipTransferred",
      "type": "event"
    },
    {
      "constant": false,
      "inputs": [
        {
          "name": "beneficiary",
          "type": "address"
        }
      ],
      "name": "buyMemeCoin",
      "outputs": [],
      "payable": true,
      "stateMutability": "payable",
      "type": "function"
    },
    {
      "constant": false,
      "inputs": [
        {
          "name": "to",
          "type": "address"
        },
        {
          "name": "postId",
          "type": "uint256"
        }
      ],
      "name": "giveLike",
      "outputs": [],
      "payable": false,
      "stateMutability": "nonpayable",
      "type": "function"
    },
    {
      "constant": true,
      "inputs": [],
      "name": "getLikeWorth",
      "outputs": [
        {
          "name": "",
          "type": "uint256"
        }
      ],
      "payable": false,
      "stateMutability": "view",
      "type": "function"
    },
    {
      "constant": false,
      "inputs": [
        {
          "name": "likeWorth",
          "type": "uint256"
        }
      ],
      "name": "setLikeWorth",
      "outputs": [],
      "payable": false,
      "stateMutability": "nonpayable",
      "type": "function"
    },
    {
      "constant": false,
      "inputs": [
        {
          "name": "to",
          "type": "address"
        },
        {
          "name": "postId",
          "type": "uint256"
        }
      ],
      "name": "giveDislike",
      "outputs": [],
      "payable": false,
      "stateMutability": "nonpayable",
      "type": "function"
    },
    {
      "constant": false,
      "inputs": [
        {
          "name": "to",
          "type": "address"
        },
        {
          "name": "amount",
          "type": "uint256"
        }
      ],
      "name": "giveGift",
      "outputs": [],
      "payable": false,
      "stateMutability": "nonpayable",
      "type": "function"
    },
    {
      "constant": false,
      "inputs": [
        {
          "name": "postId",
          "type": "uint256[]"
        },
        {
          "name": "originalPoster",
          "type": "address[]"
        },
        {
          "name": "reporter",
          "type": "address[]"
        },
        {
          "name": "confirmer",
          "type": "address[][]"
        }
      ],
      "name": "rewardForLikes",
      "outputs": [],
      "payable": false,
      "stateMutability": "nonpayable",
      "type": "function"
    }
  ],
  "bytecode": "0x6080604052600a6004553480156200001657600080fd5b506040516060806200236d8339810180604052620000389190810190620002f3565b60006200004a620002a660201b60201c565b9050806000806101000a81548173ffffffffffffffffffffffffffffffffffffffff021916908373ffffffffffffffffffffffffffffffffffffffff1602179055508073ffffffffffffffffffffffffffffffffffffffff16600073ffffffffffffffffffffffffffffffffffffffff167f8be0079c531659141344cd1fd0a4f28419497f9722a3daafe3b4186f6b6457e060405160405180910390a350600081116200012e576040517f08c379a000000000000000000000000000000000000000000000000000000000815260040162000125906200049f565b60405180910390fd5b600073ffffffffffffffffffffffffffffffffffffffff168273ffffffffffffffffffffffffffffffffffffffff161415620001a1576040517f08c379a000000000000000000000000000000000000000000000000000000000815260040162000198906200045b565b60405180910390fd5b600073ffffffffffffffffffffffffffffffffffffffff168373ffffffffffffffffffffffffffffffffffffffff16141562000214576040517f08c379a00000000000000000000000000000000000000000000000000000000081526004016200020b906200047d565b60405180910390fd5b82600160006101000a81548173ffffffffffffffffffffffffffffffffffffffff021916908373ffffffffffffffffffffffffffffffffffffffff16021790555081600360006101000a81548173ffffffffffffffffffffffffffffffffffffffff021916908373ffffffffffffffffffffffffffffffffffffffff1602179055508060028190555050505062000572565b600033905090565b600081519050620002bf8162000524565b92915050565b600081519050620002d6816200053e565b92915050565b600081519050620002ed8162000558565b92915050565b6000806000606084860312156200030957600080fd5b60006200031986828701620002ae565b93505060206200032c86828701620002c5565b92505060406200033f86828701620002dc565b9150509250925092565b600062000358602883620004c1565b91507f546f6b656e45636f6e6f6d793a2077616c6c657420697320746865207a65726f60008301527f20616464726573730000000000000000000000000000000000000000000000006020830152604082019050919050565b6000620003c0602783620004c1565b91507f546f6b656e45636f6e6f6d793a20746f6b656e20697320746865207a65726f2060008301527f61646472657373000000000000000000000000000000000000000000000000006020830152604082019050919050565b600062000428601783620004c1565b91507f546f6b656e45636f6e6f6d793a207261746520697320300000000000000000006000830152602082019050919050565b60006020820190508181036000830152620004768162000349565b9050919050565b600060208201905081810360008301526200049881620003b1565b9050919050565b60006020820190508181036000830152620004ba8162000419565b9050919050565b600082825260208201905092915050565b6000620004df82620004fa565b9050919050565b6000620004f382620004fa565b9050919050565b600073ffffffffffffffffffffffffffffffffffffffff82169050919050565b6000819050919050565b6200052f81620004d2565b81146200053b57600080fd5b50565b6200054981620004e6565b81146200055557600080fd5b50565b62000563816200051a565b81146200056f57600080fd5b50565b611deb80620005826000396000f3fe60806040526004361061009b5760003560e01c8063715018a611610064578063715018a6146101755780638da5cb5b1461018c5780638f32d59b146101b7578063a94ba720146101e2578063efd696ea1461020b578063f2fde38b146102275761009b565b8062aea558146100a657806307ca8757146100cf578063105e7381146100fa5780635433f23c1461012357806361a799701461014c575b6100a433610250565b005b3480156100b257600080fd5b506100cd60048036036100c8919081019061169f565b61027b565b005b3480156100db57600080fd5b506100e46102cc565b6040516100f19190611bc6565b60405180910390f35b34801561010657600080fd5b50610121600480360361011c91908101906115b3565b6102d6565b005b34801561012f57600080fd5b5061014a60048036036101459190810190611577565b610483565b005b34801561015857600080fd5b50610173600480360361016e9190810190611577565b6104d6565b005b34801561018157600080fd5b5061018a6105e2565b005b34801561019857600080fd5b506101a16106e8565b6040516101ae9190611a0e565b60405180910390f35b3480156101c357600080fd5b506101cc610711565b6040516101d99190611a89565b60405180910390f35b3480156101ee57600080fd5b5061020960048036036102049190810190611577565b61076f565b005b6102256004803603610220919081019061154e565b610250565b005b34801561023357600080fd5b5061024e6004803603610249919081019061154e565b61087b565b005b600034905061025f82826108ce565b600061026a82610986565b905061027683826109a4565b505050565b610283610711565b6102c2576040517f08c379a00000000000000000000000000000000000000000000000000000000081526004016102b990611b46565b60405180910390fd5b8060048190555050565b6000600454905090565b60008090505b60058054905081101561047c576102f16112d4565b600660006005848154811061030257fe5b90600052602060002001548152602001908152602001600020604051806080016040529081600082015481526020016001820160009054906101000a900473ffffffffffffffffffffffffffffffffffffffff1673ffffffffffffffffffffffffffffffffffffffff1673ffffffffffffffffffffffffffffffffffffffff1681526020016002820154815260200160038201548152505090506103a981878787876109f5565b61046e5761040f6103b86106e8565b8260200151836040015160045402600160009054906101000a900473ffffffffffffffffffffffffffffffffffffffff1673ffffffffffffffffffffffffffffffffffffffff16610ce0909392919063ffffffff16565b61046d61041a6106e8565b30836060015160045402600160009054906101000a900473ffffffffffffffffffffffffffffffffffffffff1673ffffffffffffffffffffffffffffffffffffffff16610ce0909392919063ffffffff16565b5b5080806001019150506102dc565b5050505050565b6104d2338383600160009054906101000a900473ffffffffffffffffffffffffffffffffffffffff1673ffffffffffffffffffffffffffffffffffffffff16610ce0909392919063ffffffff16565b5050565b61052e336104e26106e8565b600454600160009054906101000a900473ffffffffffffffffffffffffffffffffffffffff1673ffffffffffffffffffffffffffffffffffffffff16610ce0909392919063ffffffff16565b6000600660008381526020019081526020016000206000015414156105b85760405180608001604052808281526020018373ffffffffffffffffffffffffffffffffffffffff1681526020016001815260200160008152505060058190806001815401808255809150509060018203906000526020600020016000909192909190915055506105de565b600160066000838152602001908152602001600020600201600082825401925050819055505b5050565b6105ea610711565b610629576040517f08c379a000000000000000000000000000000000000000000000000000000000815260040161062090611b46565b60405180910390fd5b600073ffffffffffffffffffffffffffffffffffffffff166000809054906101000a900473ffffffffffffffffffffffffffffffffffffffff1673ffffffffffffffffffffffffffffffffffffffff167f8be0079c531659141344cd1fd0a4f28419497f9722a3daafe3b4186f6b6457e060405160405180910390a360008060006101000a81548173ffffffffffffffffffffffffffffffffffffffff021916908373ffffffffffffffffffffffffffffffffffffffff160217905550565b60008060009054906101000a900473ffffffffffffffffffffffffffffffffffffffff16905090565b60008060009054906101000a900473ffffffffffffffffffffffffffffffffffffffff1673ffffffffffffffffffffffffffffffffffffffff16610753610d82565b73ffffffffffffffffffffffffffffffffffffffff1614905090565b6107c73361077b6106e8565b600454600160009054906101000a900473ffffffffffffffffffffffffffffffffffffffff1673ffffffffffffffffffffffffffffffffffffffff16610ce0909392919063ffffffff16565b6000600660008381526020019081526020016000206000015414156108515760405180608001604052808281526020018373ffffffffffffffffffffffffffffffffffffffff168152602001600081526020016001815250506005819080600181540180825580915050906001820390600052602060002001600090919290919091505550610877565b600160066000838152602001908152602001600020600301600082825401925050819055505b5050565b610883610711565b6108c2576040517f08c379a00000000000000000000000000000000000000000000000000000000081526004016108b990611b46565b60405180910390fd5b6108cb81610d8a565b50565b600073ffffffffffffffffffffffffffffffffffffffff168273ffffffffffffffffffffffffffffffffffffffff16141561093e576040517f08c379a000000000000000000000000000000000000000000000000000000000815260040161093590611ae6565b60405180910390fd5b6000811415610982576040517f08c379a000000000000000000000000000000000000000000000000000000000815260040161097990611b66565b60405180910390fd5b5050565b600061099d60025483610eb890919063ffffffff16565b9050919050565b6109f18282600160009054906101000a900473ffffffffffffffffffffffffffffffffffffffff1673ffffffffffffffffffffffffffffffffffffffff16610f289092919063ffffffff16565b5050565b600080600090505b8551811015610cd257858181518110610a1257fe5b602002602001015187600001511415610cc557610aa6610a306106e8565b868381518110610a3c57fe5b6020026020010151610a5d8a60400151600454610eb890919063ffffffff16565b600160009054906101000a900473ffffffffffffffffffffffffffffffffffffffff1673ffffffffffffffffffffffffffffffffffffffff16610ce0909392919063ffffffff16565b6000610ac16004548960600151610eb890919063ffffffff16565b90506000610ad9600283610fc790919063ffffffff16565b9050610aee818361101190919063ffffffff16565b91506000610b19868581518110610b0157fe5b60200260200101515184610fc790919063ffffffff16565b9050610b54610b45878681518110610b2d57fe5b60200260200101515183610eb890919063ffffffff16565b8461101190919063ffffffff16565b9250610bbf610b616106e8565b888681518110610b6d57fe5b602002602001015184600160009054906101000a900473ffffffffffffffffffffffffffffffffffffffff1673ffffffffffffffffffffffffffffffffffffffff16610ce0909392919063ffffffff16565b60008090505b868581518110610bd157fe5b602002602001015151811015610c6a57610c5d610bec6106e8565b888781518110610bf857fe5b60200260200101518381518110610c0b57fe5b602002602001015184600160009054906101000a900473ffffffffffffffffffffffffffffffffffffffff1673ffffffffffffffffffffffffffffffffffffffff16610ce0909392919063ffffffff16565b8080600101915050610bc5565b50610cc1610c766106e8565b3085600160009054906101000a900473ffffffffffffffffffffffffffffffffffffffff1673ffffffffffffffffffffffffffffffffffffffff16610ce0909392919063ffffffff16565b5050505b80806001019150506109fd565b506000905095945050505050565b610d7c848573ffffffffffffffffffffffffffffffffffffffff166323b872dd905060e01b858585604051602401610d1a93929190611a29565b604051602081830303815290604052907bffffffffffffffffffffffffffffffffffffffffffffffffffffffff19166020820180517bffffffffffffffffffffffffffffffffffffffffffffffffffffffff838183161783525050505061105b565b50505050565b600033905090565b600073ffffffffffffffffffffffffffffffffffffffff168173ffffffffffffffffffffffffffffffffffffffff161415610dfa576040517f08c379a0000000000000000000000000000000000000000000000000000000008152600401610df190611ac6565b60405180910390fd5b8073ffffffffffffffffffffffffffffffffffffffff166000809054906101000a900473ffffffffffffffffffffffffffffffffffffffff1673ffffffffffffffffffffffffffffffffffffffff167f8be0079c531659141344cd1fd0a4f28419497f9722a3daafe3b4186f6b6457e060405160405180910390a3806000806101000a81548173ffffffffffffffffffffffffffffffffffffffff021916908373ffffffffffffffffffffffffffffffffffffffff16021790555050565b600080831415610ecb5760009050610f22565b6000828402905082848281610edc57fe5b0414610f1d576040517f08c379a0000000000000000000000000000000000000000000000000000000008152600401610f1490611b26565b60405180910390fd5b809150505b92915050565b610fc2838473ffffffffffffffffffffffffffffffffffffffff1663a9059cbb905060e01b8484604051602401610f60929190611a60565b604051602081830303815290604052907bffffffffffffffffffffffffffffffffffffffffffffffffffffffff19166020820180517bffffffffffffffffffffffffffffffffffffffffffffffffffffffff838183161783525050505061105b565b505050565b600061100983836040518060400160405280601a81526020017f536166654d6174683a206469766973696f6e206279207a65726f0000000000008152506111cd565b905092915050565b600061105383836040518060400160405280601e81526020017f536166654d6174683a207375627472616374696f6e206f766572666c6f77000081525061122e565b905092915050565b61107a8273ffffffffffffffffffffffffffffffffffffffff16611289565b6110b9576040517f08c379a00000000000000000000000000000000000000000000000000000000081526004016110b090611ba6565b60405180910390fd5b600060608373ffffffffffffffffffffffffffffffffffffffff16836040516110e291906119f7565b6000604051808303816000865af19150503d806000811461111f576040519150601f19603f3d011682016040523d82523d6000602084013e611124565b606091505b509150915081611169576040517f08c379a000000000000000000000000000000000000000000000000000000000815260040161116090611b06565b60405180910390fd5b6000815111156111c757808060200190516111879190810190611676565b6111c6576040517f08c379a00000000000000000000000000000000000000000000000000000000081526004016111bd90611b86565b60405180910390fd5b5b50505050565b60008083118290611214576040517f08c379a000000000000000000000000000000000000000000000000000000000815260040161120b9190611aa4565b60405180910390fd5b50600083858161122057fe5b049050809150509392505050565b6000838311158290611276576040517f08c379a000000000000000000000000000000000000000000000000000000000815260040161126d9190611aa4565b60405180910390fd5b5060008385039050809150509392505050565b60008060007fc5d2460186f7233c927e7db2dcc703c0e500b653ca82273b7bfad8045d85a47060001b9050833f91506000801b82141580156112cb5750808214155b92505050919050565b604051806080016040528060008152602001600073ffffffffffffffffffffffffffffffffffffffff16815260200160008152602001600081525090565b60008135905061132181611d6c565b92915050565b600082601f83011261133857600080fd5b813561134b61134682611c0e565b611be1565b9150818183526020840193506020810190508385602084028201111561137057600080fd5b60005b838110156113a057816113868882611312565b845260208401935060208301925050600181019050611373565b5050505092915050565b600082601f8301126113bb57600080fd5b81356113ce6113c982611c36565b611be1565b915081818352602084019350602081019050838560208402820111156113f357600080fd5b60005b8381101561142357816114098882611312565b8452602084019350602083019250506001810190506113f6565b5050505092915050565b600082601f83011261143e57600080fd5b813561145161144c82611c5e565b611be1565b9150818183526020840193506020810190508360005b83811015611497578135860161147d8882611327565b845260208401935060208301925050600181019050611467565b5050505092915050565b600082601f8301126114b257600080fd5b81356114c56114c082611c86565b611be1565b915081818352602084019350602081019050838560208402820111156114ea57600080fd5b60005b8381101561151a57816115008882611539565b8452602084019350602083019250506001810190506114ed565b5050505092915050565b60008151905061153381611d83565b92915050565b60008135905061154881611d9a565b92915050565b60006020828403121561156057600080fd5b600061156e84828501611312565b91505092915050565b6000806040838503121561158a57600080fd5b600061159885828601611312565b92505060206115a985828601611539565b9150509250929050565b600080600080608085870312156115c957600080fd5b600085013567ffffffffffffffff8111156115e357600080fd5b6115ef878288016114a1565b945050602085013567ffffffffffffffff81111561160c57600080fd5b611618878288016113aa565b935050604085013567ffffffffffffffff81111561163557600080fd5b611641878288016113aa565b925050606085013567ffffffffffffffff81111561165e57600080fd5b61166a8782880161142d565b91505092959194509250565b60006020828403121561168857600080fd5b600061169684828501611524565b91505092915050565b6000602082840312156116b157600080fd5b60006116bf84828501611539565b91505092915050565b6116d181611ce0565b82525050565b6116e081611cf2565b82525050565b60006116f182611cae565b6116fb8185611cc4565b935061170b818560208601611d28565b80840191505092915050565b600061172282611cb9565b61172c8185611ccf565b935061173c818560208601611d28565b61174581611d5b565b840191505092915050565b600061175d602683611ccf565b91507f4f776e61626c653a206e6577206f776e657220697320746865207a65726f206160008301527f64647265737300000000000000000000000000000000000000000000000000006020830152604082019050919050565b60006117c3602d83611ccf565b91507f546f6b656e45636f6e6f6d793a2062656e65666963696172792069732074686560008301527f207a65726f2061646472657373000000000000000000000000000000000000006020830152604082019050919050565b6000611829602083611ccf565b91507f5361666545524332303a206c6f772d6c6576656c2063616c6c206661696c65646000830152602082019050919050565b6000611869602183611ccf565b91507f536166654d6174683a206d756c7469706c69636174696f6e206f766572666c6f60008301527f77000000000000000000000000000000000000000000000000000000000000006020830152604082019050919050565b60006118cf602083611ccf565b91507f4f776e61626c653a2063616c6c6572206973206e6f7420746865206f776e65726000830152602082019050919050565b600061190f601c83611ccf565b91507f546f6b656e45636f6e6f6d793a20776569416d6f756e742069732030000000006000830152602082019050919050565b600061194f602a83611ccf565b91507f5361666545524332303a204552433230206f7065726174696f6e20646964206e60008301527f6f742073756363656564000000000000000000000000000000000000000000006020830152604082019050919050565b60006119b5601f83611ccf565b91507f5361666545524332303a2063616c6c20746f206e6f6e2d636f6e7472616374006000830152602082019050919050565b6119f181611d1e565b82525050565b6000611a0382846116e6565b915081905092915050565b6000602082019050611a2360008301846116c8565b92915050565b6000606082019050611a3e60008301866116c8565b611a4b60208301856116c8565b611a5860408301846119e8565b949350505050565b6000604082019050611a7560008301856116c8565b611a8260208301846119e8565b9392505050565b6000602082019050611a9e60008301846116d7565b92915050565b60006020820190508181036000830152611abe8184611717565b905092915050565b60006020820190508181036000830152611adf81611750565b9050919050565b60006020820190508181036000830152611aff816117b6565b9050919050565b60006020820190508181036000830152611b1f8161181c565b9050919050565b60006020820190508181036000830152611b3f8161185c565b9050919050565b60006020820190508181036000830152611b5f816118c2565b9050919050565b60006020820190508181036000830152611b7f81611902565b9050919050565b60006020820190508181036000830152611b9f81611942565b9050919050565b60006020820190508181036000830152611bbf816119a8565b9050919050565b6000602082019050611bdb60008301846119e8565b92915050565b6000604051905081810181811067ffffffffffffffff82111715611c0457600080fd5b8060405250919050565b600067ffffffffffffffff821115611c2557600080fd5b602082029050602081019050919050565b600067ffffffffffffffff821115611c4d57600080fd5b602082029050602081019050919050565b600067ffffffffffffffff821115611c7557600080fd5b602082029050602081019050919050565b600067ffffffffffffffff821115611c9d57600080fd5b602082029050602081019050919050565b600081519050919050565b600081519050919050565b600081905092915050565b600082825260208201905092915050565b6000611ceb82611cfe565b9050919050565b60008115159050919050565b600073ffffffffffffffffffffffffffffffffffffffff82169050919050565b6000819050919050565b60005b83811015611d46578082015181840152602081019050611d2b565b83811115611d55576000848401525b50505050565b6000601f19601f8301169050919050565b611d7581611ce0565b8114611d8057600080fd5b50565b611d8c81611cf2565b8114611d9757600080fd5b50565b611da381611d1e565b8114611dae57600080fd5b5056fea265627a7a723058200db8edfc443efc525a9fdbbf11737fe063082f3c40b5e06254da8430e3cb551f6c6578706572696d656e74616cf50037",
  "source": "pragma solidity ^0.5.8;\npragma experimental ABIEncoderV2;\n\nimport \"./utils/Ownable.sol\";\nimport \"./utils/SafeMath.sol\";\nimport \"./token/SafeERC20.sol\";\nimport \"./token/IERC20.sol\";\n\ncontract TokenEconomy is Ownable {\n\n    using SafeMath for uint256;\n    using SafeERC20 for IERC20;\n\n    IERC20 private _token;\n    uint private _rate;\n    address payable private _wallet;\n    uint private _likeWorth = 10;\n\n    uint[] private postLikeList;\n    mapping (uint => PostLike) private likeMapping;\n\n    struct PostLike{\n        uint postId;\n        address poster;\n        uint amountLike;\n        uint amountDisLike;\n    }\n\n    constructor(address tokenAddress, address payable wallet, uint rate) public {\n        require(rate > 0, \"TokenEconomy: rate is 0\");\n        require(wallet != address(0), \"TokenEconomy: wallet is the zero address\");\n        require(address(tokenAddress) != address(0), \"TokenEconomy: token is the zero address\");\n\n        _token = IERC20(tokenAddress);\n        _wallet = wallet;\n        _rate = rate;\n    }\n\n    function() external payable {\n        buyMemeCoin(msg.sender);\n    }\n\n    function _preValidatePurchase(address beneficiary, uint256 weiAmount) internal view {\n        require(beneficiary != address(0), \"TokenEconomy: beneficiary is the zero address\");\n        require(weiAmount != 0, \"TokenEconomy: weiAmount is 0\");\n        this;\n        // silence state mutability warning without generating bytecode - see https://github.com/ethereum/solidity/issues/2691\n    }\n\n    function buyMemeCoin(address beneficiary) public payable {\n        uint256 weiAmount = msg.value;\n        _preValidatePurchase(beneficiary, weiAmount);\n\n        // calculate token amount to be created\n        uint256 tokens = _getTokenAmount(weiAmount);\n\n        _processPurchase(beneficiary, tokens);\n    }\n\n    function _getTokenAmount(uint256 weiAmount) internal view returns (uint256) {\n        return weiAmount.mul(_rate);\n    }\n\n    function _processPurchase(address beneficiary, uint256 tokenAmount) internal {\n        _token.safeTransfer(beneficiary, tokenAmount);\n    }\n\n    function _forwardFunds() internal onlyOwner {\n        _wallet.transfer(msg.value);\n    }\n\n    function giveLike(address to, uint postId) external{\n        _token.safeTransferFrom(msg.sender, owner(), _likeWorth);\n        if(likeMapping[postId].postId == 0){\n            PostLike(postId,to,1,0);\n            postLikeList.push(postId);\n        }else{\n            likeMapping[postId].amountLike += 1;\n        }\n    }\n\n    function getLikeWorth() external view returns (uint){\n        return _likeWorth;\n    }\n\n    function setLikeWorth(uint likeWorth) external onlyOwner {\n        _likeWorth = likeWorth;\n    }\n\n    function giveDislike(address to, uint postId) external {\n        _token.safeTransferFrom(msg.sender, owner(), _likeWorth);\n        if(likeMapping[postId].postId == 0){\n            PostLike(postId,to,0,1);\n            postLikeList.push(postId);\n        }else{\n            likeMapping[postId].amountDisLike += 1;\n        }\n    }\n\n    function giveGift(address to, uint amount) external{\n        return _token.safeTransferFrom(msg.sender, to, amount);\n    }\n\n    function _reportExist(PostLike memory like, uint[] memory postId,address[] memory originalPoster, address[] memory reporter, address [][] memory confirmer) internal returns (bool){\n        for (uint i = 0; i < postId.length; i++) {\n            if (like.postId == postId[i]) {\n                _token.safeTransferFrom(owner(),originalPoster[i] , _likeWorth.mul(like.amountLike));\n                uint amountToDistribute = like.amountDisLike.mul(_likeWorth);\n                uint amountReporter = amountToDistribute.div(2);\n                amountToDistribute = amountToDistribute.sub(amountReporter);\n                uint amountConfirmer = amountToDistribute.div(confirmer[i].length);\n                amountToDistribute = amountToDistribute.sub(amountConfirmer.mul(confirmer[i].length));\n                _token.safeTransferFrom(owner(), reporter[i], amountReporter);\n                for(uint j = 0; j< confirmer[i].length; j++){\n                    _token.safeTransferFrom(owner(), confirmer[i][j],amountConfirmer);\n                }\n                _token.safeTransferFrom(owner(), address (this), amountToDistribute);\n            }\n        }\n        return false;\n    }\n\n    function rewardForLikes(uint[] memory postId,address[] memory originalPoster, address[] memory reporter, address [][] memory confirmer) public {\n        for (uint i = 0; i < postLikeList.length; i++) {\n            PostLike memory postLikeElement  = likeMapping[postLikeList[i]];\n            if (!_reportExist(postLikeElement, postId,originalPoster, reporter, confirmer)) {\n                _token.safeTransferFrom(owner(), postLikeElement.poster, _likeWorth*postLikeElement.amountLike);\n                _token.safeTransferFrom(owner(), address (this), _likeWorth*postLikeElement.amountDisLike);\n            }\n        }\n    }\n\n}",
  "sourcePath": "/home/leon/Documents/POSTECH/Blockchain and Cryptocurrency/TermProject/chainpost/contracts/TokenEconomy.sol",
  "compiler": {
    "name": "solc",
    "version": "0.5.8+commit.23d335f2.Emscripten.clang"
  },
  "schemaVersion": "3.0.17",
  "updatedAt": "2019-12-18T10:36:12.858Z",
  "networkType": "ethereum",
  "devdoc": {
    "methods": {
      "isOwner()": {
        "details": "Returns true if the caller is the current owner."
      },
      "owner()": {
        "details": "Returns the address of the current owner."
      },
      "renounceOwnership()": {
        "details": "Leaves the contract without owner. It will not be possible to call `onlyOwner` functions anymore. Can only be called by the current owner.     * NOTE: Renouncing ownership will leave the contract without an owner, thereby removing any functionality that is only available to the owner."
      },
      "transferOwnership(address)": {
        "details": "Transfers ownership of the contract to a new account (`newOwner`). Can only be called by the current owner."
      }
    }
  },
  "userdoc": {
    "methods": {}
  }
}