{
  "contractName": "TokenEconomy",
  "abi": [
    {
      "inputs": [
        {
          "internalType": "address",
          "name": "tokenAddress",
          "type": "address"
        },
        {
          "internalType": "address payable",
          "name": "wallet",
          "type": "address"
        },
        {
          "internalType": "uint256",
          "name": "rate",
          "type": "uint256"
        }
      ],
      "payable": false,
      "stateMutability": "nonpayable",
      "type": "constructor"
    },
    {
      "anonymous": false,
      "inputs": [
        {
          "indexed": true,
          "internalType": "address",
          "name": "previousOwner",
          "type": "address"
        },
        {
          "indexed": true,
          "internalType": "address",
          "name": "newOwner",
          "type": "address"
        }
      ],
      "name": "OwnershipTransferred",
      "type": "event"
    },
    {
      "payable": true,
      "stateMutability": "payable",
      "type": "fallback"
    },
    {
      "constant": true,
      "inputs": [],
      "name": "isOwner",
      "outputs": [
        {
          "internalType": "bool",
          "name": "",
          "type": "bool"
        }
      ],
      "payable": false,
      "stateMutability": "view",
      "type": "function"
    },
    {
      "constant": true,
      "inputs": [],
      "name": "owner",
      "outputs": [
        {
          "internalType": "address",
          "name": "",
          "type": "address"
        }
      ],
      "payable": false,
      "stateMutability": "view",
      "type": "function"
    },
    {
      "constant": false,
      "inputs": [],
      "name": "renounceOwnership",
      "outputs": [],
      "payable": false,
      "stateMutability": "nonpayable",
      "type": "function"
    },
    {
      "constant": false,
      "inputs": [
        {
          "internalType": "address",
          "name": "newOwner",
          "type": "address"
        }
      ],
      "name": "transferOwnership",
      "outputs": [],
      "payable": false,
      "stateMutability": "nonpayable",
      "type": "function"
    },
    {
      "constant": false,
      "inputs": [
        {
          "internalType": "address",
          "name": "beneficiary",
          "type": "address"
        }
      ],
      "name": "buyMemeCoin",
      "outputs": [],
      "payable": true,
      "stateMutability": "payable",
      "type": "function"
    },
    {
      "constant": false,
      "inputs": [
        {
          "internalType": "address",
          "name": "to",
          "type": "address"
        },
        {
          "internalType": "uint256",
          "name": "postId",
          "type": "uint256"
        }
      ],
      "name": "giveLike",
      "outputs": [],
      "payable": false,
      "stateMutability": "nonpayable",
      "type": "function"
    },
    {
      "constant": true,
      "inputs": [],
      "name": "getLikeWorth",
      "outputs": [
        {
          "internalType": "uint256",
          "name": "",
          "type": "uint256"
        }
      ],
      "payable": false,
      "stateMutability": "view",
      "type": "function"
    },
    {
      "constant": false,
      "inputs": [
        {
          "internalType": "uint256",
          "name": "likeWorth",
          "type": "uint256"
        }
      ],
      "name": "setLikeWorth",
      "outputs": [],
      "payable": false,
      "stateMutability": "nonpayable",
      "type": "function"
    },
    {
      "constant": false,
      "inputs": [
        {
          "internalType": "address",
          "name": "to",
          "type": "address"
        },
        {
          "internalType": "uint256",
          "name": "postId",
          "type": "uint256"
        }
      ],
      "name": "giveDisLike",
      "outputs": [],
      "payable": false,
      "stateMutability": "nonpayable",
      "type": "function"
    },
    {
      "constant": false,
      "inputs": [
        {
          "internalType": "address",
          "name": "to",
          "type": "address"
        },
        {
          "internalType": "uint256",
          "name": "amount",
          "type": "uint256"
        }
      ],
      "name": "giveGift",
      "outputs": [],
      "payable": false,
      "stateMutability": "nonpayable",
      "type": "function"
    },
    {
      "constant": false,
      "inputs": [
        {
          "internalType": "uint256[]",
          "name": "postId",
          "type": "uint256[]"
        },
        {
          "internalType": "address[]",
          "name": "originalPoster",
          "type": "address[]"
        },
        {
          "internalType": "address[]",
          "name": "reporter",
          "type": "address[]"
        },
        {
          "internalType": "address[][]",
          "name": "confirmer",
          "type": "address[][]"
        }
      ],
      "name": "rewardForLikes",
      "outputs": [],
      "payable": false,
      "stateMutability": "nonpayable",
      "type": "function"
    }
  ],
  "bytecode": "0x6080604052600a6004553480156200001657600080fd5b50604051620025a3380380620025a383398181016040526200003c9190810190620002f7565b60006200004e620002aa60201b60201c565b9050806000806101000a81548173ffffffffffffffffffffffffffffffffffffffff021916908373ffffffffffffffffffffffffffffffffffffffff1602179055508073ffffffffffffffffffffffffffffffffffffffff16600073ffffffffffffffffffffffffffffffffffffffff167f8be0079c531659141344cd1fd0a4f28419497f9722a3daafe3b4186f6b6457e060405160405180910390a3506000811162000132576040517f08c379a00000000000000000000000000000000000000000000000000000000081526004016200012990620004a3565b60405180910390fd5b600073ffffffffffffffffffffffffffffffffffffffff168273ffffffffffffffffffffffffffffffffffffffff161415620001a5576040517f08c379a00000000000000000000000000000000000000000000000000000000081526004016200019c906200045f565b60405180910390fd5b600073ffffffffffffffffffffffffffffffffffffffff168373ffffffffffffffffffffffffffffffffffffffff16141562000218576040517f08c379a00000000000000000000000000000000000000000000000000000000081526004016200020f9062000481565b60405180910390fd5b82600160006101000a81548173ffffffffffffffffffffffffffffffffffffffff021916908373ffffffffffffffffffffffffffffffffffffffff16021790555081600360006101000a81548173ffffffffffffffffffffffffffffffffffffffff021916908373ffffffffffffffffffffffffffffffffffffffff1602179055508060028190555050505062000576565b600033905090565b600081519050620002c38162000528565b92915050565b600081519050620002da8162000542565b92915050565b600081519050620002f1816200055c565b92915050565b6000806000606084860312156200030d57600080fd5b60006200031d86828701620002b2565b93505060206200033086828701620002c9565b92505060406200034386828701620002e0565b9150509250925092565b60006200035c602883620004c5565b91507f546f6b656e45636f6e6f6d793a2077616c6c657420697320746865207a65726f60008301527f20616464726573730000000000000000000000000000000000000000000000006020830152604082019050919050565b6000620003c4602783620004c5565b91507f546f6b656e45636f6e6f6d793a20746f6b656e20697320746865207a65726f2060008301527f61646472657373000000000000000000000000000000000000000000000000006020830152604082019050919050565b60006200042c601783620004c5565b91507f546f6b656e45636f6e6f6d793a207261746520697320300000000000000000006000830152602082019050919050565b600060208201905081810360008301526200047a816200034d565b9050919050565b600060208201905081810360008301526200049c81620003b5565b9050919050565b60006020820190508181036000830152620004be816200041d565b9050919050565b600082825260208201905092915050565b6000620004e382620004fe565b9050919050565b6000620004f782620004fe565b9050919050565b600073ffffffffffffffffffffffffffffffffffffffff82169050919050565b6000819050919050565b6200053381620004d6565b81146200053f57600080fd5b50565b6200054d81620004ea565b81146200055957600080fd5b50565b62000567816200051e565b81146200057357600080fd5b50565b61201d80620005866000396000f3fe60806040526004361061009b5760003560e01c8063715018a611610064578063715018a6146101755780638da5cb5b1461018c5780638f32d59b146101b7578063c7b009ec146101e2578063efd696ea1461020b578063f2fde38b146102275761009b565b8062aea558146100a657806307ca8757146100cf578063105e7381146100fa5780635433f23c1461012357806361a799701461014c575b6100a433610250565b005b3480156100b257600080fd5b506100cd60048036036100c891908101906118c8565b61027b565b005b3480156100db57600080fd5b506100e46102cc565b6040516100f19190611def565b60405180910390f35b34801561010657600080fd5b50610121600480360361011c91908101906117dc565b6102d6565b005b34801561012f57600080fd5b5061014a600480360361014591908101906117a0565b61048b565b005b34801561015857600080fd5b50610173600480360361016e91908101906117a0565b6104de565b005b34801561018157600080fd5b5061018a610664565b005b34801561019857600080fd5b506101a161076a565b6040516101ae9190611c37565b60405180910390f35b3480156101c357600080fd5b506101cc610793565b6040516101d99190611cb2565b60405180910390f35b3480156101ee57600080fd5b50610209600480360361020491908101906117a0565b6107f1565b005b61022560048036036102209190810190611777565b610250565b005b34801561023357600080fd5b5061024e60048036036102499190810190611777565b610977565b005b600034905061025f82826109ca565b600061026a82610a82565b90506102768382610aa0565b505050565b610283610793565b6102c2576040517f08c379a00000000000000000000000000000000000000000000000000000000081526004016102b990611d6f565b60405180910390fd5b8060048190555050565b6000600454905090565b60008090505b60058054905081101561047c576102f16114b7565b600660006005848154811061030257fe5b90600052602060002001548152602001908152602001600020604051806080016040529081600082015481526020016001820160009054906101000a900473ffffffffffffffffffffffffffffffffffffffff1673ffffffffffffffffffffffffffffffffffffffff1673ffffffffffffffffffffffffffffffffffffffff1681526020016002820154815260200160038201548152505090506103a98187878787610af1565b61046e5761040f6103b861076a565b8260200151836040015160045402600160009054906101000a900473ffffffffffffffffffffffffffffffffffffffff1673ffffffffffffffffffffffffffffffffffffffff16610df9909392919063ffffffff16565b61046d61041a61076a565b30836060015160045402600160009054906101000a900473ffffffffffffffffffffffffffffffffffffffff1673ffffffffffffffffffffffffffffffffffffffff16610df9909392919063ffffffff16565b5b5080806001019150506102dc565b50610485610e9b565b50505050565b6104da338383600160009054906101000a900473ffffffffffffffffffffffffffffffffffffffff1673ffffffffffffffffffffffffffffffffffffffff16610df9909392919063ffffffff16565b5050565b610536336104ea61076a565b600454600160009054906101000a900473ffffffffffffffffffffffffffffffffffffffff1673ffffffffffffffffffffffffffffffffffffffff16610df9909392919063ffffffff16565b60006006600083815260200190815260200160002060000154141561063a5760405180608001604052808281526020018373ffffffffffffffffffffffffffffffffffffffff168152602001600181526020016000815250600660008381526020019081526020016000206000820151816000015560208201518160010160006101000a81548173ffffffffffffffffffffffffffffffffffffffff021916908373ffffffffffffffffffffffffffffffffffffffff16021790555060408201518160020155606082015181600301559050506005819080600181540180825580915050906001820390600052602060002001600090919290919091505550610660565b600160066000838152602001908152602001600020600201600082825401925050819055505b5050565b61066c610793565b6106ab576040517f08c379a00000000000000000000000000000000000000000000000000000000081526004016106a290611d6f565b60405180910390fd5b600073ffffffffffffffffffffffffffffffffffffffff166000809054906101000a900473ffffffffffffffffffffffffffffffffffffffff1673ffffffffffffffffffffffffffffffffffffffff167f8be0079c531659141344cd1fd0a4f28419497f9722a3daafe3b4186f6b6457e060405160405180910390a360008060006101000a81548173ffffffffffffffffffffffffffffffffffffffff021916908373ffffffffffffffffffffffffffffffffffffffff160217905550565b60008060009054906101000a900473ffffffffffffffffffffffffffffffffffffffff16905090565b60008060009054906101000a900473ffffffffffffffffffffffffffffffffffffffff1673ffffffffffffffffffffffffffffffffffffffff166107d5610f65565b73ffffffffffffffffffffffffffffffffffffffff1614905090565b610849336107fd61076a565b600454600160009054906101000a900473ffffffffffffffffffffffffffffffffffffffff1673ffffffffffffffffffffffffffffffffffffffff16610df9909392919063ffffffff16565b60006006600083815260200190815260200160002060000154141561094d5760405180608001604052808281526020018373ffffffffffffffffffffffffffffffffffffffff168152602001600081526020016001815250600660008381526020019081526020016000206000820151816000015560208201518160010160006101000a81548173ffffffffffffffffffffffffffffffffffffffff021916908373ffffffffffffffffffffffffffffffffffffffff16021790555060408201518160020155606082015181600301559050506005819080600181540180825580915050906001820390600052602060002001600090919290919091505550610973565b600160066000838152602001908152602001600020600301600082825401925050819055505b5050565b61097f610793565b6109be576040517f08c379a00000000000000000000000000000000000000000000000000000000081526004016109b590611d6f565b60405180910390fd5b6109c781610f6d565b50565b600073ffffffffffffffffffffffffffffffffffffffff168273ffffffffffffffffffffffffffffffffffffffff161415610a3a576040517f08c379a0000000000000000000000000000000000000000000000000000000008152600401610a3190611d0f565b60405180910390fd5b6000811415610a7e576040517f08c379a0000000000000000000000000000000000000000000000000000000008152600401610a7590611d8f565b60405180910390fd5b5050565b6000610a996002548361109b90919063ffffffff16565b9050919050565b610aed8282600160009054906101000a900473ffffffffffffffffffffffffffffffffffffffff1673ffffffffffffffffffffffffffffffffffffffff1661110b9092919063ffffffff16565b5050565b600080600090505b8551811015610deb57858181518110610b0e57fe5b602002602001015187600001511415610dde57610ba2610b2c61076a565b868381518110610b3857fe5b6020026020010151610b598a6040015160045461109b90919063ffffffff16565b600160009054906101000a900473ffffffffffffffffffffffffffffffffffffffff1673ffffffffffffffffffffffffffffffffffffffff16610df9909392919063ffffffff16565b6000610bbd600454896060015161109b90919063ffffffff16565b90506000610bd56002836111aa90919063ffffffff16565b9050610bea81836111f490919063ffffffff16565b91506000858481518110610bfa57fe5b60200260200101515114610d85576000610c31868581518110610c1957fe5b602002602001015151846111aa90919063ffffffff16565b9050610c6c610c5d878681518110610c4557fe5b6020026020010151518361109b90919063ffffffff16565b846111f490919063ffffffff16565b9250610cd7610c7961076a565b888681518110610c8557fe5b602002602001015184600160009054906101000a900473ffffffffffffffffffffffffffffffffffffffff1673ffffffffffffffffffffffffffffffffffffffff16610df9909392919063ffffffff16565b60008090505b868581518110610ce957fe5b602002602001015151811015610d8257610d75610d0461076a565b888781518110610d1057fe5b60200260200101518381518110610d2357fe5b602002602001015184600160009054906101000a900473ffffffffffffffffffffffffffffffffffffffff1673ffffffffffffffffffffffffffffffffffffffff16610df9909392919063ffffffff16565b8080600101915050610cdd565b50505b610ddb610d9061076a565b3084600160009054906101000a900473ffffffffffffffffffffffffffffffffffffffff1673ffffffffffffffffffffffffffffffffffffffff16610df9909392919063ffffffff16565b50505b8080600101915050610af9565b506000905095945050505050565b610e95848573ffffffffffffffffffffffffffffffffffffffff166323b872dd905060e01b858585604051602401610e3393929190611c52565b604051602081830303815290604052907bffffffffffffffffffffffffffffffffffffffffffffffffffffffff19166020820180517bffffffffffffffffffffffffffffffffffffffffffffffffffffffff838183161783525050505061123e565b50505050565b60008090505b600580549050811015610f545760006006600060058481548110610ec157fe5b906000526020600020015481526020019081526020016000206000018190555060006006600060058481548110610ef457fe5b906000526020600020015481526020019081526020016000206002018190555060006006600060058481548110610f2757fe5b90600052602060002001548152602001908152602001600020600301819055508080600101915050610ea1565b5060056000610f6391906114f5565b565b600033905090565b600073ffffffffffffffffffffffffffffffffffffffff168173ffffffffffffffffffffffffffffffffffffffff161415610fdd576040517f08c379a0000000000000000000000000000000000000000000000000000000008152600401610fd490611cef565b60405180910390fd5b8073ffffffffffffffffffffffffffffffffffffffff166000809054906101000a900473ffffffffffffffffffffffffffffffffffffffff1673ffffffffffffffffffffffffffffffffffffffff167f8be0079c531659141344cd1fd0a4f28419497f9722a3daafe3b4186f6b6457e060405160405180910390a3806000806101000a81548173ffffffffffffffffffffffffffffffffffffffff021916908373ffffffffffffffffffffffffffffffffffffffff16021790555050565b6000808314156110ae5760009050611105565b60008284029050828482816110bf57fe5b0414611100576040517f08c379a00000000000000000000000000000000000000000000000000000000081526004016110f790611d4f565b60405180910390fd5b809150505b92915050565b6111a5838473ffffffffffffffffffffffffffffffffffffffff1663a9059cbb905060e01b8484604051602401611143929190611c89565b604051602081830303815290604052907bffffffffffffffffffffffffffffffffffffffffffffffffffffffff19166020820180517bffffffffffffffffffffffffffffffffffffffffffffffffffffffff838183161783525050505061123e565b505050565b60006111ec83836040518060400160405280601a81526020017f536166654d6174683a206469766973696f6e206279207a65726f0000000000008152506113b0565b905092915050565b600061123683836040518060400160405280601e81526020017f536166654d6174683a207375627472616374696f6e206f766572666c6f770000815250611411565b905092915050565b61125d8273ffffffffffffffffffffffffffffffffffffffff1661146c565b61129c576040517f08c379a000000000000000000000000000000000000000000000000000000000815260040161129390611dcf565b60405180910390fd5b600060608373ffffffffffffffffffffffffffffffffffffffff16836040516112c59190611c20565b6000604051808303816000865af19150503d8060008114611302576040519150601f19603f3d011682016040523d82523d6000602084013e611307565b606091505b50915091508161134c576040517f08c379a000000000000000000000000000000000000000000000000000000000815260040161134390611d2f565b60405180910390fd5b6000815111156113aa578080602001905161136a919081019061189f565b6113a9576040517f08c379a00000000000000000000000000000000000000000000000000000000081526004016113a090611daf565b60405180910390fd5b5b50505050565b600080831182906113f7576040517f08c379a00000000000000000000000000000000000000000000000000000000081526004016113ee9190611ccd565b60405180910390fd5b50600083858161140357fe5b049050809150509392505050565b6000838311158290611459576040517f08c379a00000000000000000000000000000000000000000000000000000000081526004016114509190611ccd565b60405180910390fd5b5060008385039050809150509392505050565b60008060007fc5d2460186f7233c927e7db2dcc703c0e500b653ca82273b7bfad8045d85a47060001b9050833f91506000801b82141580156114ae5750808214155b92505050919050565b604051806080016040528060008152602001600073ffffffffffffffffffffffffffffffffffffffff16815260200160008152602001600081525090565b50805460008255906000526020600020908101906115139190611516565b50565b61153891905b8082111561153457600081600090555060010161151c565b5090565b90565b60008135905061154a81611f95565b92915050565b600082601f83011261156157600080fd5b813561157461156f82611e37565b611e0a565b9150818183526020840193506020810190508385602084028201111561159957600080fd5b60005b838110156115c957816115af888261153b565b84526020840193506020830192505060018101905061159c565b5050505092915050565b600082601f8301126115e457600080fd5b81356115f76115f282611e5f565b611e0a565b9150818183526020840193506020810190508385602084028201111561161c57600080fd5b60005b8381101561164c5781611632888261153b565b84526020840193506020830192505060018101905061161f565b5050505092915050565b600082601f83011261166757600080fd5b813561167a61167582611e87565b611e0a565b9150818183526020840193506020810190508360005b838110156116c057813586016116a68882611550565b845260208401935060208301925050600181019050611690565b5050505092915050565b600082601f8301126116db57600080fd5b81356116ee6116e982611eaf565b611e0a565b9150818183526020840193506020810190508385602084028201111561171357600080fd5b60005b8381101561174357816117298882611762565b845260208401935060208301925050600181019050611716565b5050505092915050565b60008151905061175c81611fac565b92915050565b60008135905061177181611fc3565b92915050565b60006020828403121561178957600080fd5b60006117978482850161153b565b91505092915050565b600080604083850312156117b357600080fd5b60006117c18582860161153b565b92505060206117d285828601611762565b9150509250929050565b600080600080608085870312156117f257600080fd5b600085013567ffffffffffffffff81111561180c57600080fd5b611818878288016116ca565b945050602085013567ffffffffffffffff81111561183557600080fd5b611841878288016115d3565b935050604085013567ffffffffffffffff81111561185e57600080fd5b61186a878288016115d3565b925050606085013567ffffffffffffffff81111561188757600080fd5b61189387828801611656565b91505092959194509250565b6000602082840312156118b157600080fd5b60006118bf8482850161174d565b91505092915050565b6000602082840312156118da57600080fd5b60006118e884828501611762565b91505092915050565b6118fa81611f09565b82525050565b61190981611f1b565b82525050565b600061191a82611ed7565b6119248185611eed565b9350611934818560208601611f51565b80840191505092915050565b600061194b82611ee2565b6119558185611ef8565b9350611965818560208601611f51565b61196e81611f84565b840191505092915050565b6000611986602683611ef8565b91507f4f776e61626c653a206e6577206f776e657220697320746865207a65726f206160008301527f64647265737300000000000000000000000000000000000000000000000000006020830152604082019050919050565b60006119ec602d83611ef8565b91507f546f6b656e45636f6e6f6d793a2062656e65666963696172792069732074686560008301527f207a65726f2061646472657373000000000000000000000000000000000000006020830152604082019050919050565b6000611a52602083611ef8565b91507f5361666545524332303a206c6f772d6c6576656c2063616c6c206661696c65646000830152602082019050919050565b6000611a92602183611ef8565b91507f536166654d6174683a206d756c7469706c69636174696f6e206f766572666c6f60008301527f77000000000000000000000000000000000000000000000000000000000000006020830152604082019050919050565b6000611af8602083611ef8565b91507f4f776e61626c653a2063616c6c6572206973206e6f7420746865206f776e65726000830152602082019050919050565b6000611b38601c83611ef8565b91507f546f6b656e45636f6e6f6d793a20776569416d6f756e742069732030000000006000830152602082019050919050565b6000611b78602a83611ef8565b91507f5361666545524332303a204552433230206f7065726174696f6e20646964206e60008301527f6f742073756363656564000000000000000000000000000000000000000000006020830152604082019050919050565b6000611bde601f83611ef8565b91507f5361666545524332303a2063616c6c20746f206e6f6e2d636f6e7472616374006000830152602082019050919050565b611c1a81611f47565b82525050565b6000611c2c828461190f565b915081905092915050565b6000602082019050611c4c60008301846118f1565b92915050565b6000606082019050611c6760008301866118f1565b611c7460208301856118f1565b611c816040830184611c11565b949350505050565b6000604082019050611c9e60008301856118f1565b611cab6020830184611c11565b9392505050565b6000602082019050611cc76000830184611900565b92915050565b60006020820190508181036000830152611ce78184611940565b905092915050565b60006020820190508181036000830152611d0881611979565b9050919050565b60006020820190508181036000830152611d28816119df565b9050919050565b60006020820190508181036000830152611d4881611a45565b9050919050565b60006020820190508181036000830152611d6881611a85565b9050919050565b60006020820190508181036000830152611d8881611aeb565b9050919050565b60006020820190508181036000830152611da881611b2b565b9050919050565b60006020820190508181036000830152611dc881611b6b565b9050919050565b60006020820190508181036000830152611de881611bd1565b9050919050565b6000602082019050611e046000830184611c11565b92915050565b6000604051905081810181811067ffffffffffffffff82111715611e2d57600080fd5b8060405250919050565b600067ffffffffffffffff821115611e4e57600080fd5b602082029050602081019050919050565b600067ffffffffffffffff821115611e7657600080fd5b602082029050602081019050919050565b600067ffffffffffffffff821115611e9e57600080fd5b602082029050602081019050919050565b600067ffffffffffffffff821115611ec657600080fd5b602082029050602081019050919050565b600081519050919050565b600081519050919050565b600081905092915050565b600082825260208201905092915050565b6000611f1482611f27565b9050919050565b60008115159050919050565b600073ffffffffffffffffffffffffffffffffffffffff82169050919050565b6000819050919050565b60005b83811015611f6f578082015181840152602081019050611f54565b83811115611f7e576000848401525b50505050565b6000601f19601f8301169050919050565b611f9e81611f09565b8114611fa957600080fd5b50565b611fb581611f1b565b8114611fc057600080fd5b50565b611fcc81611f47565b8114611fd757600080fd5b5056fea365627a7a72315820e316394810e094cb485d4a8ba75d5073449858a2de0c40f4a54913dd06b911196c6578706572696d656e74616cf564736f6c634300050c0040",
  "source": "pragma solidity ^0.5.8;\r\npragma experimental ABIEncoderV2;\r\n\r\nimport \"./utils/Ownable.sol\";\r\nimport \"./utils/SafeMath.sol\";\r\nimport \"./token/SafeERC20.sol\";\r\nimport \"./token/IERC20.sol\";\r\n\r\ncontract TokenEconomy is Ownable {\r\n\r\n    using SafeMath for uint256;\r\n    using SafeERC20 for IERC20;\r\n\r\n    IERC20 private _token;\r\n    uint private _rate;\r\n    address payable private _wallet;\r\n    uint private _likeWorth = 10;\r\n\r\n    uint[] private postLikeList;\r\n    mapping(uint => PostLike) private likeMapping;\r\n\r\n    struct PostLike {\r\n        uint postId;\r\n        address poster;\r\n        uint amountLike;\r\n        uint amountDisLike;\r\n    }\r\n\r\n    constructor(address tokenAddress, address payable wallet, uint rate) public Ownable() {\r\n        require(rate > 0, \"TokenEconomy: rate is 0\");\r\n        require(wallet != address(0), \"TokenEconomy: wallet is the zero address\");\r\n        require(address(tokenAddress) != address(0), \"TokenEconomy: token is the zero address\");\r\n\r\n        _token = IERC20(tokenAddress);\r\n        _wallet = wallet;\r\n        _rate = rate;\r\n    }\r\n\r\n    function() external payable {\r\n        buyMemeCoin(msg.sender);\r\n    }\r\n\r\n    function _preValidatePurchase(address beneficiary, uint256 weiAmount) internal view {\r\n        require(beneficiary != address(0), \"TokenEconomy: beneficiary is the zero address\");\r\n        require(weiAmount != 0, \"TokenEconomy: weiAmount is 0\");\r\n        this;\r\n        // silence state mutability warning without generating bytecode - see https://github.com/ethereum/solidity/issues/2691\r\n    }\r\n\r\n    function _getTokenAmount(uint256 weiAmount) internal view returns (uint256) {\r\n        return weiAmount.mul(_rate);\r\n    }\r\n\r\n    function _processPurchase(address beneficiary, uint256 tokenAmount) internal {\r\n        _token.safeTransfer(beneficiary, tokenAmount);\r\n    }\r\n\r\n    function _forwardFunds() internal onlyOwner {\r\n        _wallet.transfer(msg.value);\r\n    }\r\n\r\n    function _reportExist(PostLike memory like, uint[] memory postId, address[] memory originalPoster, address[] memory reporter, address [][] memory confirmer) internal returns (bool){\r\n        for (uint i = 0; i < postId.length; i++) {\r\n            if (like.postId == postId[i]) {\r\n                _token.safeTransferFrom(owner(), originalPoster[i], _likeWorth.mul(like.amountLike));\r\n                uint amountToDistribute = like.amountDisLike.mul(_likeWorth);\r\n                uint amountReporter = amountToDistribute.div(2);\r\n                amountToDistribute = amountToDistribute.sub(amountReporter);\r\n                if (confirmer[i].length != 0) {\r\n                    uint amountConfirmer = amountToDistribute.div(confirmer[i].length);\r\n                    amountToDistribute = amountToDistribute.sub(amountConfirmer.mul(confirmer[i].length));\r\n                    _token.safeTransferFrom(owner(), reporter[i], amountReporter);\r\n                    for (uint j = 0; j < confirmer[i].length; j++) {\r\n                        _token.safeTransferFrom(owner(), confirmer[i][j], amountConfirmer);\r\n                    }\r\n                }\r\n                _token.safeTransferFrom(owner(), address(this), amountToDistribute);\r\n            }\r\n        }\r\n        return false;\r\n    }\r\n\r\n    function _resetMapping() internal{\r\n        for(uint i =0; i<postLikeList.length; i++){\r\n            likeMapping[postLikeList[i]].postId = 0;\r\n            likeMapping[postLikeList[i]].amountLike = 0;\r\n            likeMapping[postLikeList[i]].amountDisLike = 0;\r\n        }\r\n        delete postLikeList;\r\n    }\r\n\r\n    function buyMemeCoin(address beneficiary) public payable {\r\n        uint256 weiAmount = msg.value;\r\n        _preValidatePurchase(beneficiary, weiAmount);\r\n\r\n        // calculate token amount to be created\r\n        uint256 tokens = _getTokenAmount(weiAmount);\r\n\r\n        _processPurchase(beneficiary, tokens);\r\n    }\r\n\r\n    function giveLike(address to, uint postId) external {\r\n        _token.safeTransferFrom(msg.sender, owner(), _likeWorth);\r\n        if (likeMapping[postId].postId == 0) {\r\n            likeMapping[postId] = PostLike(postId,to,1,0);\r\n            postLikeList.push(postId);\r\n        } else {\r\n            likeMapping[postId].amountLike += 1;\r\n        }\r\n    }\r\n\r\n    function getLikeWorth() external view returns (uint){\r\n        return _likeWorth;\r\n    }\r\n\r\n    function setLikeWorth(uint likeWorth) external onlyOwner {\r\n        _likeWorth = likeWorth;\r\n    }\r\n\r\n    function giveDisLike(address to, uint postId) external {\r\n        _token.safeTransferFrom(msg.sender, owner(), _likeWorth);\r\n        if (likeMapping[postId].postId == 0) {\r\n            likeMapping[postId] = PostLike(postId, to, 0,1);\r\n            postLikeList.push(postId);\r\n        } else {\r\n            likeMapping[postId].amountDisLike += 1;\r\n        }\r\n    }\r\n\r\n    function giveGift(address to, uint amount) external {\r\n        return _token.safeTransferFrom(msg.sender, to, amount);\r\n    }\r\n\r\n    function rewardForLikes(uint[] memory postId, address[] memory originalPoster, address[] memory reporter, address [][] memory confirmer) public {\r\n        for (uint i = 0; i < postLikeList.length; i++) {\r\n            PostLike memory postLikeElement = likeMapping[postLikeList[i]];\r\n            if (!_reportExist(postLikeElement, postId, originalPoster, reporter, confirmer)) {\r\n                _token.safeTransferFrom(owner(), postLikeElement.poster, _likeWorth * postLikeElement.amountLike);\r\n                _token.safeTransferFrom(owner(), address(this), _likeWorth * postLikeElement.amountDisLike);\r\n            }\r\n        }\r\n        _resetMapping();\r\n    }\r\n\r\n}",
  "sourcePath": "C:/Users/rutge/Documents/Development/chainpost/contracts/TokenEconomy.sol",
  "compiler": {
    "name": "solc",
    "version": "0.5.12+commit.7709ece9.Emscripten.clang"
  },
  "schemaVersion": "3.0.19",
  "updatedAt": "2019-12-20T03:06:31.699Z",
  "networkType": "ethereum",
  "devdoc": {
    "methods": {
      "isOwner()": {
        "details": "Returns true if the caller is the current owner."
      },
      "owner()": {
        "details": "Returns the address of the current owner."
      },
      "renounceOwnership()": {
        "details": "Leaves the contract without owner. It will not be possible to call `onlyOwner` functions anymore. Can only be called by the current owner.      * NOTE: Renouncing ownership will leave the contract without an owner, thereby removing any functionality that is only available to the owner."
      },
      "transferOwnership(address)": {
        "details": "Transfers ownership of the contract to a new account (`newOwner`). Can only be called by the current owner."
      }
    }
  },
  "userdoc": {
    "methods": {}
  }
}